{
  "contractName": "GridFactory",
  "abi": [
    {
      "inputs": [
        {
          "internalType": "uint256",
          "name": "",
          "type": "uint256"
        }
      ],
      "name": "allGrids",
      "outputs": [
        {
          "internalType": "address",
          "name": "",
          "type": "address"
        }
      ],
      "stateMutability": "view",
      "type": "function",
      "constant": true
    },
    {
      "inputs": [
        {
          "internalType": "address",
          "name": "",
          "type": "address"
        },
        {
          "internalType": "uint256",
          "name": "",
          "type": "uint256"
        }
      ],
      "name": "deployedGrids",
      "outputs": [
        {
          "internalType": "address",
          "name": "",
          "type": "address"
        }
      ],
      "stateMutability": "view",
      "type": "function",
      "constant": true
    },
    {
      "inputs": [
        {
          "internalType": "string",
          "name": "_gridName",
          "type": "string"
        },
        {
          "internalType": "string",
          "name": "_country",
          "type": "string"
        },
        {
          "internalType": "uint256",
          "name": "_capacity",
          "type": "uint256"
        },
        {
          "internalType": "string",
          "name": "_state",
          "type": "string"
        }
      ],
      "name": "createGrid",
      "outputs": [
        {
          "internalType": "address",
          "name": "",
          "type": "address"
        }
      ],
      "stateMutability": "nonpayable",
      "type": "function"
    },
    {
      "inputs": [],
      "name": "getAllGrids",
      "outputs": [
        {
          "internalType": "address[]",
          "name": "",
          "type": "address[]"
        }
      ],
      "stateMutability": "view",
      "type": "function",
      "constant": true
    },
    {
      "inputs": [],
      "name": "getMyDeployedGrid",
      "outputs": [
        {
          "internalType": "address[]",
          "name": "",
          "type": "address[]"
        }
      ],
      "stateMutability": "view",
      "type": "function",
      "constant": true
    }
  ],
  "bytecode": "0x608060405234801561001057600080fd5b506117ab806100206000396000f3fe60806040523480156200001157600080fd5b50600436106200005e5760003560e01c80631f9721df14620000635780632c7253351462000099578063321c7f1f14620000bb578063371ce8e914620000dd5780636776d65c1462000113575b600080fd5b6200008160048036038101906200007b91906200054c565b62000149565b604051620000909190620005a4565b60405180910390f35b620000a362000198565b604051620000b291906200068f565b60405180910390f35b620000c562000228565b604051620000d491906200068f565b60405180910390f35b620000fb6004803603810190620000f5919062000815565b620002f5565b6040516200010a9190620005a4565b60405180910390f35b6200013160048036038101906200012b9190620008e4565b6200044a565b604051620001409190620005a4565b60405180910390f35b600160205281600052604060002081815481106200016657600080fd5b906000526020600020016000915091509054906101000a900473ffffffffffffffffffffffffffffffffffffffff1681565b606060008054806020026020016040519081016040528092919081815260200182805480156200021e57602002820191906000526020600020905b8160009054906101000a900473ffffffffffffffffffffffffffffffffffffffff1673ffffffffffffffffffffffffffffffffffffffff1681526020019060010190808311620001d3575b5050505050905090565b6060600160003373ffffffffffffffffffffffffffffffffffffffff1673ffffffffffffffffffffffffffffffffffffffff168152602001908152602001600020805480602002602001604051908101604052809291908181526020018280548015620002eb57602002820191906000526020600020905b8160009054906101000a900473ffffffffffffffffffffffffffffffffffffffff1673ffffffffffffffffffffffffffffffffffffffff1681526020019060010190808311620002a0575b5050505050905090565b60008033868686866040516200030b906200048a565b6200031b959493929190620009b0565b604051809103906000f08015801562000338573d6000803e3d6000fd5b509050600160003373ffffffffffffffffffffffffffffffffffffffff1673ffffffffffffffffffffffffffffffffffffffff168152602001908152602001600020819080600181540180825580915050600190039060005260206000200160009091909190916101000a81548173ffffffffffffffffffffffffffffffffffffffff021916908373ffffffffffffffffffffffffffffffffffffffff1602179055506000819080600181540180825580915050600190039060005260206000200160009091909190916101000a81548173ffffffffffffffffffffffffffffffffffffffff021916908373ffffffffffffffffffffffffffffffffffffffff16021790555080915050949350505050565b600081815481106200045b57600080fd5b906000526020600020016000915054906101000a900473ffffffffffffffffffffffffffffffffffffffff1681565b610d538062000a2383390190565b6000604051905090565b600080fd5b600080fd5b600073ffffffffffffffffffffffffffffffffffffffff82169050919050565b6000620004d982620004ac565b9050919050565b620004eb81620004cc565b8114620004f757600080fd5b50565b6000813590506200050b81620004e0565b92915050565b6000819050919050565b620005268162000511565b81146200053257600080fd5b50565b60008135905062000546816200051b565b92915050565b60008060408385031215620005665762000565620004a2565b5b60006200057685828601620004fa565b9250506020620005898582860162000535565b9150509250929050565b6200059e81620004cc565b82525050565b6000602082019050620005bb600083018462000593565b92915050565b600081519050919050565b600082825260208201905092915050565b6000819050602082019050919050565b620005f881620004cc565b82525050565b60006200060c8383620005ed565b60208301905092915050565b6000602082019050919050565b60006200063282620005c1565b6200063e8185620005cc565b93506200064b83620005dd565b8060005b8381101562000682578151620006668882620005fe565b9750620006738362000618565b9250506001810190506200064f565b5085935050505092915050565b60006020820190508181036000830152620006ab818462000625565b905092915050565b600080fd5b600080fd5b6000601f19601f8301169050919050565b7f4e487b7100000000000000000000000000000000000000000000000000000000600052604160045260246000fd5b6200070882620006bd565b810181811067ffffffffffffffff821117156200072a5762000729620006ce565b5b80604052505050565b60006200073f62000498565b90506200074d8282620006fd565b919050565b600067ffffffffffffffff82111562000770576200076f620006ce565b5b6200077b82620006bd565b9050602081019050919050565b82818337600083830152505050565b6000620007ae620007a88462000752565b62000733565b905082815260208101848484011115620007cd57620007cc620006b8565b5b620007da84828562000788565b509392505050565b600082601f830112620007fa57620007f9620006b3565b5b81356200080c84826020860162000797565b91505092915050565b60008060008060808587031215620008325762000831620004a2565b5b600085013567ffffffffffffffff811115620008535762000852620004a7565b5b6200086187828801620007e2565b945050602085013567ffffffffffffffff811115620008855762000884620004a7565b5b6200089387828801620007e2565b9350506040620008a68782880162000535565b925050606085013567ffffffffffffffff811115620008ca57620008c9620004a7565b5b620008d887828801620007e2565b91505092959194509250565b600060208284031215620008fd57620008fc620004a2565b5b60006200090d8482850162000535565b91505092915050565b600081519050919050565b600082825260208201905092915050565b60005b838110156200095257808201518184015260208101905062000935565b60008484015250505050565b60006200096b8262000916565b62000977818562000921565b93506200098981856020860162000932565b6200099481620006bd565b840191505092915050565b620009aa8162000511565b82525050565b600060a082019050620009c7600083018862000593565b8181036020830152620009db81876200095e565b90508181036040830152620009f181866200095e565b905062000a0260608301856200099f565b818103608083015262000a1681846200095e565b9050969550505050505056fe60806040523480156200001157600080fd5b5060405162000d5338038062000d538339818101604052810190620000379190620002f3565b84600460006101000a81548173ffffffffffffffffffffffffffffffffffffffff021916908373ffffffffffffffffffffffffffffffffffffffff160217905550806001908162000089919062000619565b5082600290816200009b919062000619565b50816003819055508360009081620000b4919062000619565b50505050505062000700565b6000604051905090565b600080fd5b600080fd5b600073ffffffffffffffffffffffffffffffffffffffff82169050919050565b60006200010182620000d4565b9050919050565b6200011381620000f4565b81146200011f57600080fd5b50565b600081519050620001338162000108565b92915050565b600080fd5b600080fd5b6000601f19601f8301169050919050565b7f4e487b7100000000000000000000000000000000000000000000000000000000600052604160045260246000fd5b6200018e8262000143565b810181811067ffffffffffffffff82111715620001b057620001af62000154565b5b80604052505050565b6000620001c5620000c0565b9050620001d3828262000183565b919050565b600067ffffffffffffffff821115620001f657620001f562000154565b5b620002018262000143565b9050602081019050919050565b60005b838110156200022e57808201518184015260208101905062000211565b60008484015250505050565b6000620002516200024b84620001d8565b620001b9565b90508281526020810184848401111562000270576200026f6200013e565b5b6200027d8482856200020e565b509392505050565b600082601f8301126200029d576200029c62000139565b5b8151620002af8482602086016200023a565b91505092915050565b6000819050919050565b620002cd81620002b8565b8114620002d957600080fd5b50565b600081519050620002ed81620002c2565b92915050565b600080600080600060a08688031215620003125762000311620000ca565b5b6000620003228882890162000122565b955050602086015167ffffffffffffffff811115620003465762000345620000cf565b5b620003548882890162000285565b945050604086015167ffffffffffffffff811115620003785762000377620000cf565b5b620003868882890162000285565b93505060606200039988828901620002dc565b925050608086015167ffffffffffffffff811115620003bd57620003bc620000cf565b5b620003cb8882890162000285565b9150509295509295909350565b600081519050919050565b7f4e487b7100000000000000000000000000000000000000000000000000000000600052602260045260246000fd5b600060028204905060018216806200042b57607f821691505b602082108103620004415762000440620003e3565b5b50919050565b60008190508160005260206000209050919050565b60006020601f8301049050919050565b600082821b905092915050565b600060088302620004ab7fffffffffffffffffffffffffffffffffffffffffffffffffffffffffffffffff826200046c565b620004b786836200046c565b95508019841693508086168417925050509392505050565b6000819050919050565b6000620004fa620004f4620004ee84620002b8565b620004cf565b620002b8565b9050919050565b6000819050919050565b6200051683620004d9565b6200052e620005258262000501565b84845462000479565b825550505050565b600090565b6200054562000536565b620005528184846200050b565b505050565b5b818110156200057a576200056e6000826200053b565b60018101905062000558565b5050565b601f821115620005c957620005938162000447565b6200059e846200045c565b81016020851015620005ae578190505b620005c6620005bd856200045c565b83018262000557565b50505b505050565b600082821c905092915050565b6000620005ee60001984600802620005ce565b1980831691505092915050565b6000620006098383620005db565b9150826002028217905092915050565b6200062482620003d8565b67ffffffffffffffff81111562000640576200063f62000154565b5b6200064c825462000412565b620006598282856200057e565b600060209050601f8311600181146200069157600084156200067c578287015190505b620006888582620005fb565b865550620006f8565b601f198416620006a18662000447565b60005b82811015620006cb57848901518255600182019150602085019450602081019050620006a4565b86831015620006eb5784890151620006e7601f891682620005db565b8355505b6001600288020188555050505b505050505050565b61064380620007106000396000f3fe608060405234801561001057600080fd5b506004361061007d5760003560e01c80635cfc1a511161005b5780635cfc1a51146100dc5780639e0c3ead146100fa578063c40000d414610118578063cae9a07d146101365761007d565b80631865c57d14610082578063227a2364146100a0578063481c6a75146100be575b600080fd5b61008a610140565b604051610097919061048f565b60405180910390f35b6100a86101d2565b6040516100b5919061048f565b60405180910390f35b6100c6610264565b6040516100d391906104f2565b60405180910390f35b6100e461028a565b6040516100f19190610526565b60405180910390f35b610102610290565b60405161010f919061048f565b60405180910390f35b610120610322565b60405161012d9190610526565b60405180910390f35b61013e61032c565b005b60606001805461014f90610570565b80601f016020809104026020016040519081016040528092919081815260200182805461017b90610570565b80156101c85780601f1061019d576101008083540402835291602001916101c8565b820191906000526020600020905b8154815290600101906020018083116101ab57829003601f168201915b5050505050905090565b6060600080546101e190610570565b80601f016020809104026020016040519081016040528092919081815260200182805461020d90610570565b801561025a5780601f1061022f5761010080835404028352916020019161025a565b820191906000526020600020905b81548152906001019060200180831161023d57829003601f168201915b5050505050905090565b600460009054906101000a900473ffffffffffffffffffffffffffffffffffffffff1681565b60035481565b60606002805461029f90610570565b80601f01602080910402602001604051908101604052809291908181526020018280546102cb90610570565b80156103185780601f106102ed57610100808354040283529160200191610318565b820191906000526020600020905b8154815290600101906020018083116102fb57829003601f168201915b5050505050905090565b6000600354905090565b600460009054906101000a900473ffffffffffffffffffffffffffffffffffffffff1673ffffffffffffffffffffffffffffffffffffffff163373ffffffffffffffffffffffffffffffffffffffff16146103bc576040517f08c379a00000000000000000000000000000000000000000000000000000000081526004016103b3906105ed565b60405180910390fd5b33600460006101000a81548173ffffffffffffffffffffffffffffffffffffffff021916908373ffffffffffffffffffffffffffffffffffffffff160217905550565b600081519050919050565b600082825260208201905092915050565b60005b8381101561043957808201518184015260208101905061041e565b60008484015250505050565b6000601f19601f8301169050919050565b6000610461826103ff565b61046b818561040a565b935061047b81856020860161041b565b61048481610445565b840191505092915050565b600060208201905081810360008301526104a98184610456565b905092915050565b600073ffffffffffffffffffffffffffffffffffffffff82169050919050565b60006104dc826104b1565b9050919050565b6104ec816104d1565b82525050565b600060208201905061050760008301846104e3565b92915050565b6000819050919050565b6105208161050d565b82525050565b600060208201905061053b6000830184610517565b92915050565b7f4e487b7100000000000000000000000000000000000000000000000000000000600052602260045260246000fd5b6000600282049050600182168061058857607f821691505b60208210810361059b5761059a610541565b5b50919050565b7f4e6f7420617574686f72697a65642e0000000000000000000000000000000000600082015250565b60006105d7600f8361040a565b91506105e2826105a1565b602082019050919050565b60006020820190508181036000830152610606816105ca565b905091905056fea264697066735822122045efac0fc47ea3330cb16dc3399ed4f2c835e3db6bf04ce7c4af4d4617f699e664736f6c63430008110033a2646970667358221220f7109367b1535a32665c4db3397d4c08c03cc08366d4c86b7a8a72b7eea3f26564736f6c63430008110033",
  "immutableReferences": {},
  "source": "/*SPDX-License-Identifier: UNLICENSED*/\npragma solidity >=0.4.22 <0.9.0;\n\ncontract GridFactory {\n  address[] public allGrids;\n  mapping(address => address[]) public deployedGrids; //Manager to grid\n\n  function createGrid(string memory _gridName, string memory _country, uint _capacity, string memory _state) public returns (address) {\n    address newGrid = address(new Grid(msg.sender, _gridName, _country, _capacity, _state));\n    deployedGrids[msg.sender].push(newGrid);\n    allGrids.push(newGrid);\n    return newGrid;\n  }\n\n  function getAllGrids() public view returns (address[] memory) {\n    return allGrids;\n  }\n\n  function getMyDeployedGrid() public view returns (address[] memory) {\n    return deployedGrids[msg.sender];\n  }\n}\n\ncontract Grid {\n  string gridName;\n  string state;\n  string country;\n  uint public capacity;\n  address public manager;\n\n constructor(address creator, string memory gridName_, string memory country_, uint capacity_, string memory state_) {\n    manager = creator;\n    state = state_;\n    country = country_;\n    capacity = capacity_;\n    gridName = gridName_;\n  }\n\n  function getGridName() public view returns(string memory) {\n    return gridName;\n  }\n  \n  function getState() public view returns(string memory) {\n    return state;\n  }\n\n  function getCountry() public view returns(string memory) {\n    return country;\n  }\n\n  function getCapacity() public view returns(uint) {\n    return capacity;\n  }\n\n  modifier isManager() {\n    require(msg.sender == manager, \"Not authorized.\");\n\n    _;\n  }\n\n  function changeManager() public isManager {\n    manager = msg.sender;\n  }\n}",
  "sourcePath": "/Volumes/Arham/A2/BMS College stufff/PBL/6th Sem PBL/dev/ethBackend/contracts/Grid.sol",
  "compiler": {
    "name": "solc",
    "version": "0.8.17+commit.8df45f5f.Emscripten.clang"
  },
  "schemaVersion": "3.4.14",
  "updatedAt": "2023-06-21T06:01:27.515Z",
  "networkType": "ethereum",
  "devdoc": {
    "kind": "dev",
    "methods": {},
    "version": 1
  },
  "userdoc": {
    "kind": "user",
    "methods": {},
    "version": 1
  }
}